{
  "_format": "hh-sol-artifact-1",
  "contractName": "TipJar",
  "sourceName": "contracts/TipJar.sol",
  "abi": [
    {
      "inputs": [
        {
          "internalType": "address",
          "name": "_relayerAddress",
          "type": "address"
        }
      ],
      "stateMutability": "nonpayable",
      "type": "constructor"
    },
    {
      "inputs": [],
      "name": "ECDSAInvalidSignature",
      "type": "error"
    },
    {
      "inputs": [
        {
          "internalType": "uint256",
          "name": "length",
          "type": "uint256"
        }
      ],
      "name": "ECDSAInvalidSignatureLength",
      "type": "error"
    },
    {
      "inputs": [
        {
          "internalType": "bytes32",
          "name": "s",
          "type": "bytes32"
        }
      ],
      "name": "ECDSAInvalidSignatureS",
      "type": "error"
    },
    {
      "inputs": [],
      "name": "InvalidShortString",
      "type": "error"
    },
    {
      "inputs": [
        {
          "internalType": "address",
          "name": "owner",
          "type": "address"
        }
      ],
      "name": "OwnableInvalidOwner",
      "type": "error"
    },
    {
      "inputs": [
        {
          "internalType": "address",
          "name": "account",
          "type": "address"
        }
      ],
      "name": "OwnableUnauthorizedAccount",
      "type": "error"
    },
    {
      "inputs": [],
      "name": "ReentrancyGuardReentrantCall",
      "type": "error"
    },
    {
      "inputs": [
        {
          "internalType": "string",
          "name": "str",
          "type": "string"
        }
      ],
      "name": "StringTooLong",
      "type": "error"
    },
    {
      "anonymous": false,
      "inputs": [],
      "name": "EIP712DomainChanged",
      "type": "event"
    },
    {
      "anonymous": false,
      "inputs": [
        {
          "indexed": true,
          "internalType": "address",
          "name": "creator",
          "type": "address"
        },
        {
          "indexed": false,
          "internalType": "uint256",
          "name": "amount",
          "type": "uint256"
        }
      ],
      "name": "FundsWithdrawn",
      "type": "event"
    },
    {
      "anonymous": false,
      "inputs": [
        {
          "indexed": true,
          "internalType": "address",
          "name": "previousOwner",
          "type": "address"
        },
        {
          "indexed": true,
          "internalType": "address",
          "name": "newOwner",
          "type": "address"
        }
      ],
      "name": "OwnershipTransferred",
      "type": "event"
    },
    {
      "anonymous": false,
      "inputs": [
        {
          "indexed": true,
          "internalType": "address",
          "name": "oldRelayer",
          "type": "address"
        },
        {
          "indexed": true,
          "internalType": "address",
          "name": "newRelayer",
          "type": "address"
        }
      ],
      "name": "RelayerUpdated",
      "type": "event"
    },
    {
      "anonymous": false,
      "inputs": [
        {
          "indexed": true,
          "internalType": "address",
          "name": "fan",
          "type": "address"
        },
        {
          "indexed": true,
          "internalType": "address",
          "name": "creator",
          "type": "address"
        },
        {
          "indexed": false,
          "internalType": "uint256",
          "name": "amount",
          "type": "uint256"
        },
        {
          "indexed": false,
          "internalType": "uint256",
          "name": "nonce",
          "type": "uint256"
        }
      ],
      "name": "TipReceived",
      "type": "event"
    },
    {
      "inputs": [
        {
          "internalType": "address",
          "name": "",
          "type": "address"
        }
      ],
      "name": "claimableBalances",
      "outputs": [
        {
          "internalType": "uint256",
          "name": "",
          "type": "uint256"
        }
      ],
      "stateMutability": "view",
      "type": "function"
    },
    {
      "inputs": [],
      "name": "eip712Domain",
      "outputs": [
        {
          "internalType": "bytes1",
          "name": "fields",
          "type": "bytes1"
        },
        {
          "internalType": "string",
          "name": "name",
          "type": "string"
        },
        {
          "internalType": "string",
          "name": "version",
          "type": "string"
        },
        {
          "internalType": "uint256",
          "name": "chainId",
          "type": "uint256"
        },
        {
          "internalType": "address",
          "name": "verifyingContract",
          "type": "address"
        },
        {
          "internalType": "bytes32",
          "name": "salt",
          "type": "bytes32"
        },
        {
          "internalType": "uint256[]",
          "name": "extensions",
          "type": "uint256[]"
        }
      ],
      "stateMutability": "view",
      "type": "function"
    },
    {
      "inputs": [],
      "name": "emergencyWithdraw",
      "outputs": [],
      "stateMutability": "nonpayable",
      "type": "function"
    },
    {
      "inputs": [
        {
          "internalType": "address",
          "name": "creator",
          "type": "address"
        }
      ],
      "name": "getClaimableBalance",
      "outputs": [
        {
          "internalType": "uint256",
          "name": "",
          "type": "uint256"
        }
      ],
      "stateMutability": "view",
      "type": "function"
    },
    {
      "inputs": [],
      "name": "getDomainSeparator",
      "outputs": [
        {
          "internalType": "bytes32",
          "name": "",
          "type": "bytes32"
        }
      ],
      "stateMutability": "view",
      "type": "function"
    },
    {
      "inputs": [
        {
          "internalType": "address",
          "name": "fan",
          "type": "address"
        }
      ],
      "name": "getNonce",
      "outputs": [
        {
          "internalType": "uint256",
          "name": "",
          "type": "uint256"
        }
      ],
      "stateMutability": "view",
      "type": "function"
    },
    {
      "inputs": [
        {
          "internalType": "bytes32",
          "name": "digest",
          "type": "bytes32"
        },
        {
          "internalType": "bytes",
          "name": "signature",
          "type": "bytes"
        }
      ],
      "name": "isSignatureProcessed",
      "outputs": [
        {
          "internalType": "bool",
          "name": "",
          "type": "bool"
        }
      ],
      "stateMutability": "view",
      "type": "function"
    },
    {
      "inputs": [
        {
          "internalType": "address",
          "name": "",
          "type": "address"
        }
      ],
      "name": "nonces",
      "outputs": [
        {
          "internalType": "uint256",
          "name": "",
          "type": "uint256"
        }
      ],
      "stateMutability": "view",
      "type": "function"
    },
    {
      "inputs": [],
      "name": "owner",
      "outputs": [
        {
          "internalType": "address",
          "name": "",
          "type": "address"
        }
      ],
      "stateMutability": "view",
      "type": "function"
    },
    {
      "inputs": [
        {
          "internalType": "bytes32",
          "name": "",
          "type": "bytes32"
        }
      ],
      "name": "processedSignatures",
      "outputs": [
        {
          "internalType": "bool",
          "name": "",
          "type": "bool"
        }
      ],
      "stateMutability": "view",
      "type": "function"
    },
    {
      "inputs": [],
      "name": "relayerAddress",
      "outputs": [
        {
          "internalType": "address",
          "name": "",
          "type": "address"
        }
      ],
      "stateMutability": "view",
      "type": "function"
    },
    {
      "inputs": [],
      "name": "renounceOwnership",
      "outputs": [],
      "stateMutability": "nonpayable",
      "type": "function"
    },
    {
      "inputs": [
        {
          "internalType": "address",
          "name": "fan",
          "type": "address"
        },
        {
          "internalType": "address",
          "name": "creator",
          "type": "address"
        },
        {
          "internalType": "uint256",
          "name": "amount",
          "type": "uint256"
        },
        {
          "internalType": "uint256",
          "name": "nonce",
          "type": "uint256"
        },
        {
          "internalType": "bytes",
          "name": "signature",
          "type": "bytes"
        }
      ],
      "name": "tip",
      "outputs": [],
      "stateMutability": "payable",
      "type": "function"
    },
    {
      "inputs": [
        {
          "internalType": "address",
          "name": "newOwner",
          "type": "address"
        }
      ],
      "name": "transferOwnership",
      "outputs": [],
      "stateMutability": "nonpayable",
      "type": "function"
    },
    {
      "inputs": [
        {
          "internalType": "address",
          "name": "newRelayer",
          "type": "address"
        }
      ],
      "name": "updateRelayer",
      "outputs": [],
      "stateMutability": "nonpayable",
      "type": "function"
    },
    {
      "inputs": [],
      "name": "withdraw",
      "outputs": [],
      "stateMutability": "nonpayable",
      "type": "function"
    }
  ],
  "bytecode": "0x61016060405234801561001157600080fd5b5060405161194638038061194683398101604081905261003091610299565b604080518082018252600c81526b26b0b73a3632aa34b82530b960a11b602080830191909152825180840190935260018352603160f81b9083015233916100788260006101d6565b610120526100878160016101d6565b61014052815160208084019190912060e052815190820120610100524660a05261011460e05161010051604080517f8b73c3c69bb8fe3d512ecc4cf759cc79239f7b179b0ffacaa9a75d522b39400f60208201529081019290925260608201524660808201523060a082015260009060c00160405160208183030381529060405280519060200120905090565b60805250503060c0526001600160a01b03811661014c57604051631e4fbdf760e01b8152600060048201526024015b60405180910390fd5b61015581610209565b5060016003556001600160a01b0381166101b15760405162461bcd60e51b815260206004820152601760248201527f496e76616c69642072656c6179657220616464726573730000000000000000006044820152606401610143565b600780546001600160a01b0319166001600160a01b0392909216919091179055610498565b60006020835110156101f2576101eb8361025b565b9050610203565b816101fd8482610368565b5060ff90505b92915050565b600280546001600160a01b038381166001600160a01b0319831681179093556040519116919082907f8be0079c531659141344cd1fd0a4f28419497f9722a3daafe3b4186f6b6457e090600090a35050565b600080829050601f81511115610286578260405163305a27a960e01b81526004016101439190610426565b805161029182610474565b179392505050565b6000602082840312156102ab57600080fd5b81516001600160a01b03811681146102c257600080fd5b9392505050565b634e487b7160e01b600052604160045260246000fd5b600181811c908216806102f357607f821691505b60208210810361031357634e487b7160e01b600052602260045260246000fd5b50919050565b601f82111561036357806000526020600020601f840160051c810160208510156103405750805b601f840160051c820191505b81811015610360576000815560010161034c565b50505b505050565b81516001600160401b03811115610381576103816102c9565b6103958161038f84546102df565b84610319565b6020601f8211600181146103c957600083156103b15750848201515b600019600385901b1c1916600184901b178455610360565b600084815260208120601f198516915b828110156103f957878501518255602094850194600190920191016103d9565b50848210156104175786840151600019600387901b60f8161c191681555b50505050600190811b01905550565b602081526000825180602084015260005b818110156104545760208186018101516040868401015201610437565b506000604082850101526040601f19601f83011684010191505092915050565b805160208083015191908110156103135760001960209190910360031b1b16919050565b60805160a05160c05160e0516101005161012051610140516114546104f26000396000610c9b01526000610c6e01526000610d9b01526000610d7301526000610cce01526000610cf801526000610d2201526114546000f3fe6080604052600436106100f35760003560e01c806384b0196e1161008a578063ed24911d11610059578063ed24911d146102e0578063f2fde38b146102f5578063f773abcd14610315578063facdc76d1461034557600080fd5b806384b0196e146102655780638da5cb5b1461028d5780638f83ab13146102ab578063db2e21bc146102cb57600080fd5b806354e675d1116100c657806354e675d1146101c657806368c8278f146101f6578063715018a6146102235780637ecebe001461023857600080fd5b806306def802146100f857806318a7cca8146101415780632d0335ab146101795780633ccfd60b146101af575b600080fd5b34801561010457600080fd5b5061012e61011336600461114c565b6001600160a01b031660009081526004602052604090205490565b6040519081526020015b60405180910390f35b34801561014d57600080fd5b50600754610161906001600160a01b031681565b6040516001600160a01b039091168152602001610138565b34801561018557600080fd5b5061012e61019436600461114c565b6001600160a01b031660009081526006602052604090205490565b3480156101bb57600080fd5b506101c4610358565b005b3480156101d257600080fd5b506101e66101e13660046111b7565b610495565b6040519015158152602001610138565b34801561020257600080fd5b5061012e61021136600461114c565b60046020526000908152604090205481565b34801561022f57600080fd5b506101c46104de565b34801561024457600080fd5b5061012e61025336600461114c565b60066020526000908152604090205481565b34801561027157600080fd5b5061027a6104f0565b6040516101389796959493929190611249565b34801561029957600080fd5b506002546001600160a01b0316610161565b3480156102b757600080fd5b506101c46102c636600461114c565b610536565b3480156102d757600080fd5b506101c46105e6565b3480156102ec57600080fd5b5061012e6106eb565b34801561030157600080fd5b506101c461031036600461114c565b6106fa565b34801561032157600080fd5b506101e66103303660046112e1565b60056020526000908152604090205460ff1681565b6101c46103533660046112fa565b610738565b610360610bbe565b33600090815260046020526040902054806103b95760405162461bcd60e51b81526020600482015260146024820152734e6f2066756e647320746f20776974686472617760601b60448201526064015b60405180910390fd5b336000818152600460205260408082208290555190919083908381818185875af1925050503d806000811461040a576040519150601f19603f3d011682016040523d82523d6000602084013e61040f565b606091505b50509050806104525760405162461bcd60e51b815260206004820152600f60248201526e151c985b9cd9995c8819985a5b1959608a1b60448201526064016103b0565b60405182815233907feaff4b37086828766ad3268786972c0cd24259d4c87a80f9d3963a3c3d999b0d9060200160405180910390a250506104936001600355565b565b6000808484846040516020016104ad93929190611372565b60408051808303601f1901815291815281516020928301206000908152600590925290205460ff1695945050505050565b6104e6610be8565b6104936000610c15565b600060608060008060006060610504610c67565b61050c610c94565b60408051600080825260208201909252600f60f81b9b939a50919850469750309650945092509050565b61053e610be8565b6001600160a01b0381166105945760405162461bcd60e51b815260206004820152601760248201527f496e76616c69642072656c61796572206164647265737300000000000000000060448201526064016103b0565b600780546001600160a01b038381166001600160a01b0319831681179093556040519116919082907f605ca4e43489fb38b91aa63dd9147cd3847957694b080b9285ec898b34269f0c90600090a35050565b6105ee610be8565b47806106335760405162461bcd60e51b81526020600482015260146024820152734e6f2066756e647320746f20776974686472617760601b60448201526064016103b0565b60006106476002546001600160a01b031690565b6001600160a01b03168260405160006040518083038185875af1925050503d8060008114610691576040519150601f19603f3d011682016040523d82523d6000602084013e610696565b606091505b50509050806106e75760405162461bcd60e51b815260206004820152601b60248201527f456d657267656e6379207769746864726177616c206661696c6564000000000060448201526064016103b0565b5050565b60006106f5610cc1565b905090565b610702610be8565b6001600160a01b03811661072c57604051631e4fbdf760e01b8152600060048201526024016103b0565b61073581610c15565b50565b6007546001600160a01b031633146107ac5760405162461bcd60e51b815260206004820152603160248201527f556e617574686f72697a65643a204f6e6c792072656c617965722063616e206360448201527030b636103a3434b990333ab731ba34b7b760791b60648201526084016103b0565b6107b4610bbe565b6001600160a01b0386166108005760405162461bcd60e51b8152602060048201526013602482015272496e76616c69642066616e206164647265737360681b60448201526064016103b0565b6001600160a01b0385166108565760405162461bcd60e51b815260206004820152601760248201527f496e76616c69642063726561746f72206164647265737300000000000000000060448201526064016103b0565b600084116108b25760405162461bcd60e51b8152602060048201526024808201527f54697020616d6f756e74206d7573742062652067726561746572207468616e206044820152637a65726f60e01b60648201526084016103b0565b8334146109015760405162461bcd60e51b815260206004820181905260248201527f53656e742076616c7565206d757374206d617463682074697020616d6f756e7460448201526064016103b0565b6001600160a01b03861660009081526006602052604090205483146109585760405162461bcd60e51b815260206004820152600d60248201526c496e76616c6964206e6f6e636560981b60448201526064016103b0565b604080517f55eeef63dd4e6bed22bab36663dbfc0a61648e551f6b0a8a41630416103602b26020808301919091526001600160a01b0389811683850152881660608301526080820187905260a08083018790528351808403909101815260c0909201909252805191012060006109cd82610dec565b905060008185856040516020016109e693929190611372565b60408051601f1981840301815291815281516020928301206000818152600590935291205490915060ff1615610a575760405162461bcd60e51b815260206004820152601660248201527514da59db985d1d5c9948185b1c9958591e481d5cd95960521b60448201526064016103b0565b6000610a9b86868080601f0160208091040260200160405190810160405280939291908181526020018383808284376000920191909152508793925050610e1f9050565b9050896001600160a01b0316816001600160a01b031614610af25760405162461bcd60e51b8152602060048201526011602482015270496e76616c6964207369676e617475726560781b60448201526064016103b0565b6000828152600560209081526040808320805460ff191660011790556001600160a01b038d16835260069091528120805491610b2d836113a2565b90915550506001600160a01b038916600090815260046020526040812080548a9290610b5a9084906113bb565b909155505060408051898152602081018990526001600160a01b03808c1692908d16917fa202f6935faec8efc93760d73a5f1e99e4cfb0a7b4c477caad562fd9439e8669910160405180910390a350505050610bb66001600355565b505050505050565b600260035403610be157604051633ee5aeb560e01b815260040160405180910390fd5b6002600355565b6002546001600160a01b031633146104935760405163118cdaa760e01b81523360048201526024016103b0565b600280546001600160a01b038381166001600160a01b0319831681179093556040519116919082907f8be0079c531659141344cd1fd0a4f28419497f9722a3daafe3b4186f6b6457e090600090a35050565b60606106f57f00000000000000000000000000000000000000000000000000000000000000006000610e49565b60606106f57f00000000000000000000000000000000000000000000000000000000000000006001610e49565b6000306001600160a01b037f000000000000000000000000000000000000000000000000000000000000000016148015610d1a57507f000000000000000000000000000000000000000000000000000000000000000046145b15610d4457507f000000000000000000000000000000000000000000000000000000000000000090565b6106f5604080517f8b73c3c69bb8fe3d512ecc4cf759cc79239f7b179b0ffacaa9a75d522b39400f60208201527f0000000000000000000000000000000000000000000000000000000000000000918101919091527f000000000000000000000000000000000000000000000000000000000000000060608201524660808201523060a082015260009060c00160405160208183030381529060405280519060200120905090565b6000610e19610df9610cc1565b8360405161190160f01b8152600281019290925260228201526042902090565b92915050565b600080600080610e2f8686610ef4565b925092509250610e3f8282610f41565b5090949350505050565b606060ff8314610e6357610e5c83610ffa565b9050610e19565b818054610e6f906113ce565b80601f0160208091040260200160405190810160405280929190818152602001828054610e9b906113ce565b8015610ee85780601f10610ebd57610100808354040283529160200191610ee8565b820191906000526020600020905b815481529060010190602001808311610ecb57829003601f168201915b50505050509050610e19565b60008060008351604103610f2e5760208401516040850151606086015160001a610f2088828585611039565b955095509550505050610f3a565b50508151600091506002905b9250925092565b6000826003811115610f5557610f55611408565b03610f5e575050565b6001826003811115610f7257610f72611408565b03610f905760405163f645eedf60e01b815260040160405180910390fd5b6002826003811115610fa457610fa4611408565b03610fc55760405163fce698f760e01b8152600481018290526024016103b0565b6003826003811115610fd957610fd9611408565b036106e7576040516335e2f38360e21b8152600481018290526024016103b0565b6060600061100783611108565b604080516020808252818301909252919250600091906020820181803683375050509182525060208101929092525090565b600080807f7fffffffffffffffffffffffffffffff5d576e7357a4501ddfe92f46681b20a084111561107457506000915060039050826110fe565b604080516000808252602082018084528a905260ff891692820192909252606081018790526080810186905260019060a0016020604051602081039080840390855afa1580156110c8573d6000803e3d6000fd5b5050604051601f1901519150506001600160a01b0381166110f4575060009250600191508290506110fe565b9250600091508190505b9450945094915050565b600060ff8216601f811115610e1957604051632cd44ac360e21b815260040160405180910390fd5b80356001600160a01b038116811461114757600080fd5b919050565b60006020828403121561115e57600080fd5b61116782611130565b9392505050565b60008083601f84011261118057600080fd5b50813567ffffffffffffffff81111561119857600080fd5b6020830191508360208285010111156111b057600080fd5b9250929050565b6000806000604084860312156111cc57600080fd5b83359250602084013567ffffffffffffffff8111156111ea57600080fd5b6111f68682870161116e565b9497909650939450505050565b6000815180845260005b818110156112295760208185018101518683018201520161120d565b506000602082860101526020601f19601f83011685010191505092915050565b60ff60f81b8816815260e06020820152600061126860e0830189611203565b828103604084015261127a8189611203565b606084018890526001600160a01b038716608085015260a0840186905283810360c08501528451808252602080870193509091019060005b818110156112d05783518352602093840193909201916001016112b2565b50909b9a5050505050505050505050565b6000602082840312156112f357600080fd5b5035919050565b60008060008060008060a0878903121561131357600080fd5b61131c87611130565b955061132a60208801611130565b94506040870135935060608701359250608087013567ffffffffffffffff81111561135457600080fd5b61136089828a0161116e565b979a9699509497509295939492505050565b838152818360208301376000910160200190815292915050565b634e487b7160e01b600052601160045260246000fd5b6000600182016113b4576113b461138c565b5060010190565b80820180821115610e1957610e1961138c565b600181811c908216806113e257607f821691505b60208210810361140257634e487b7160e01b600052602260045260246000fd5b50919050565b634e487b7160e01b600052602160045260246000fdfea264697066735822122018d2ae8cd240a38a21f917ec5050829f99b85cddc29301a02fb66e6ef70896f664736f6c634300081c0033",
  "linkReferences": {},
  "deployedLinkReferences": {}
}